:020000040800F2
:1000000018040020490100084105000851040008B7
:100010001105000891010008FF0B00080000000016
:10002000000000000000000000000000C9060008F9
:10003000C902000800000000D9050008590800089E
:100040006301000863010008630100086301000800
:1000500063010008630100086301000863010008F0
:1000600063010008630100086301000863010008E0
:1000700063010008630100086301000863010008D0
:1000800063010008630100086301000863010008C0
:1000900063010008630100086301000863010008B0
:1000A00063010008630100086301000863010008A0
:1000B000BD08000863010008D508000863010008B6
:1000C0006301000863010008630100086301000880
:1000D0006301000863010008630100086301000870
:1000E0006301000863010008630100086301000860
:1000F0006301000863010008630100086301000850
:10010000630100086301000863010008630100083F
:10011000630100086301000863010008630100082F
:10012000630100086301000863010008630100081F
:10013000DFF810D000F01AF800480047910C0008D2
:10014000AFF30080180400200648804706480047A7
:10015000FEE7FEE7FEE7FEE7FEE7FEE7FEE7FEE777
:10016000FEE7FEE75D08000831010008064C074D78
:1001700006E0E06840F0010394E807009847103477
:10018000AC42F6D3FFF7D8FF30170008501700082D
:1001900000BFFEE708B50121102000F085FA4FF4FA
:1001A0000050ADF8000028208DF803006946024891
:1001B00000F0BAF808BD00000010014008B50121A8
:1001C000102000F071FA4FF48040ADF800002820B4
:1001D0008DF803006946024800F0A6F808BD00004B
:1001E0000010014008B50121102000F05DFA4FF425
:1001F0000040ADF8000028208DF803006946024851
:1002000000F092F808BD00000010014008B501217F
:10021000042000F049FA4FF40040ADF80000282017
:100220008DF803006946024800F07EF808BD000022
:100230000008014008B50121082000F035FA082027
:10024000ADF8000028208DF803006946014800F051
:100250006BF808BD000C014008B50121082000F032
:1002600023FA1020ADF8000028208DF8030069461D
:10027000014800F059F808BD000C014008B5012103
:10028000082000F011FA4FF48070ADF8000028202B
:100290008DF803006946024800F046F808BD0000EA
:1002A000000C014008B50121042000F0FDF9802078
:1002B000ADF8000028208DF803006946014800F0E1
:1002C00033F808BD00080140704700B5034603E05D
:1002D0004FF47A7000F011F8181EA3F10103F7D162
:1002E00000BD10B5044603E04FF47A70FFF7EDFF50
:1002F000201EA4F10104F7D110BD00EBC001C9001C
:100300004FF0E0225161002191610521116100BF90
:100310004FF0E021096901F480310029F8D004216F
:100320004FF0E022116170472DE9F04102460025AF
:100330000026002000230024002791F803C00CF0C1
:100340000F0591F803C00CF0100CBCF1000F03D0A6
:1003500091F802C04CEA050591F800C0BCF1000F0D
:1003600031D0146800202BE04FF0010C0CFA00F3A0
:10037000B1F800C00CEA03069E4220D183004FF082
:100380000F0C0CFA03F7BC4305FA03FC4CEA040417
:1003900091F803C0BCF1280F06D14FF0010C0CFA04
:1003A00000FCC2F814C00AE091F803C0BCF1480F89
:1003B00005D14FF0010C0CFA00FCC2F810C0401C33
:1003C0000828D1D31460B1F800C0BCF1FF0F34DDB0
:1003D000546800202EE000F1080C4FF0010808FAE4
:1003E0000CF3B1F800C00CEA03069E4221D1830051
:1003F0004FF00F0C0CFA03F7BC4305FA03FC4CEA70
:10040000040491F803C0BCF1280F05D100F1080CD9
:1004100008FA0CF8C2F8148091F803C0BCF1480F38
:1004200007D100F1080C4FF0010808FA0CF8C2F8E7
:100430001080401C0828CED35460BDE8F0810246ED
:10044000002093680B400BB1012000E000207047B2
:1004500000BFFEE701464906084A926942F00102E0
:10046000064B9A61064A526822F0E062044B5A60D9
:100470001A4652680A435A60704700000010024052
:100480000000014008B50121042000F00DF94820CA
:100490008DF803002020ADF8000003208DF8020045
:1004A00069460248FFF740FF08BD00000008014010
:1004B00010B5002420210B48FFF7C1FF70B91420AC
:1004C000FFF703FF00BF20210648FFF7B8FF002811
:1004D000F9D01420FFF7F9FE012400E000242046A3
:1004E00010BD0000000801400146072323EA010275
:1004F0001202054B18684FF6FF031840034B1843D0
:100500001043014B186070470CED00E00000FA0545
:1005100000BFFEE708B50121082000F0C5F84FF440
:100520007040ADF8000010208DF8030003208DF816
:10053000020069460148FFF7F7FE08BD000C0140C4
:100540007047000000B589B00121022000F09CF83E
:100550000121082000F0A8F818208DF823000120C0
:10056000ADF8200003208DF8220008A91848FFF7F5
:10057000DBFE184800F0E1F90020ADF81A00ADF8F4
:10058000160044F61F60ADF818004720ADF81400BF
:1005900000208DF81C0005A90E4800F0D1FA01A832
:1005A00000F0C3FA6020ADF804000020ADF80C00A4
:1005B0000120ADF806000020ADF80A0001A90548A9
:1005C00000F018FA0121034800F09CF909B000BDC1
:1005D000000C0140000400407047000000B589B0E5
:1005E000FFF798FF0121C80200F05EF80121042006
:1005F00000F05AF84FF41060ADF8200018208DF884
:10060000230003208DF8220008A91D48FFF78CFE67
:1006100041F61F40ADF818000020ADF81400ADF809
:100620001A00ADF8160005A9164800F089FA6020F6
:10063000ADF804000120ADF806000020ADF80A0076
:10064000ADF80C0001A90F4800F07EF901A90D4892
:1006500000F020FA01210B4800F060F90821094858
:1006600000F0BEF90821074800F052FA01210548C0
:1006700000F03CF90121034800F044F909B000BD45
:1006800000080140002C014029B1064AD26902430A
:10069000044BDA6104E0034AD2698243014BDA6118
:1006A000704700000010024029B1064A92690243D7
:1006B000044B9A6104E0034A92698243014B9A61B8
:1006C0007047000000100240704710B5FFF73AFF76
:1006D00010BD10B500F002F810BD00000CB50020F0
:1006E000019000903348006840F480303149086040
:1006F00000BF3048006800F4003000900198401CB2
:100700000190009818B90198B0F5A06FF1D129486F
:10071000006800F4003010B10120009001E00020DA
:1007200000900098012843D12348006840F0100051
:10073000214908600846006820F003000860084668
:10074000006840F0020008601A4840681949486093
:100750000846406848600846406840F48060486049
:100760000846406820F47C1048600846406840F421
:10077000E81048600846006840F08070086000BFDC
:100780000C48006800F000700028F9D00948406863
:1007900020F00300074948600846406840F0020026
:1007A000486000BF0348406800F00C000828F9D1F9
:1007B0000CBD0000001002400020024000B50346BE
:1007C0000A46002B07DD0120164908600020164963
:1007D000C1F8B00106E0002012490860012012496A
:1007E000C1F8B001002A08DD00200E49091D08608B
:1007F00001200D49C1F8BC0107E001200949091D8C
:10080000086000200849C1F8BC01184600F05EFFEE
:1008100006490880104600F059FF04490C39088049
:1008200000BD0000B481214200802142402C0140E3
:10083000042808D14FF0E021096941F004014FF08C
:10084000E022116107E04FF0E021096921F0040185
:100850004FF0E022116170477047000010B5134857
:10086000006840F0010011490860084640681049DE
:1008700008400E494860084600680E4908400B4988
:1008800008600846006820F4802008600846406838
:1008900020F4FE0048604FF41F008860FFF719FF46
:1008A0004FF000600449086010BD000000100240D5
:1008B0000000FFF8FFFFF6FE08ED00E04FF080407B
:1008C000008A4FF08040008A20F001004FF0804104
:1008D00008827047044800880348008820F001001F
:1008E00001490880704700001008004021B10288CB
:1008F00042F08002028004E002884FF67F731A40C3
:100900000280704721B1028842F00102028004E0B7
:1009100002884FF6FE731A400280704731B1B0F87A
:10092000442042F40042A0F8442005E0B0F84420FE
:10093000C2F30E02A0F84420704701894FF6F87206
:10094000114001817047000070B50024002200238F
:10095000058C4FF6FE7635400584028C8388048B27
:100960004FF68F752C40B51E2C400D882C43751EFC
:100970002A400D892A434D882A43144DA8420BD0A2
:10098000134DA84208D0134DA84205D0124DA842DD
:1009900002D0124DA84213D14FF6F7752A404D8967
:1009A0002A434FF6FB752A408D882A434FF6FF6590
:1009B0002B404FF6FF552B408D892B43CD892B4380
:1009C00083800483CD888586028470BD002C01401D
:1009D0000034014000400140004401400048014013
:1009E0000A460021018B4FF6F7731940114301832A
:1009F0007047000070B5002400220023058C4FF6DC
:100A0000FF6635400584028C8388848B4FF68F7592
:100A10002C404FF6FC752C400D882C434FF6FF55AB
:100A20002A400D894FF6FF7606EA05252A434D88B0
:100A300006EA05252A43154DA84202D0144DA842C6
:100A40001DD14FF2FF752A404D894FF6FF7606EA19
:100A500005252A434FF6FF352A408D8806EA0525ED
:100A60002A434EF6FF752B404DF6FF752B408D89BE
:100A700006EA05152B43CD8906EA05152B4383802D
:100A80008483CD888587028470BD0000002C0140DE
:100A90000034014070B5002200230024058C4EF67E
:100AA000FF7635400584038C8488828B48F6FF7579
:100AB0002A404FF6FF452A400D884FF6FF7606EA9A
:100AC00005252A434DF6FF752B400D8906EA0535AD
:100AD0002B434D8806EA05352B430B4DA84202D027
:100AE0000A4DA84208D14BF6FF752C408D894FF670
:100AF000FF7606EA85152C4384808283CD88A0F892
:100B00004050038470BD0000002C014000340140BF
:100B10000A460021818B4FF2FF7319404FF6FF7395
:100B200003EA022319438183704700210180418039
:100B30008180C180018141818181C1817047000034
:100B4000002202881D4B98420ED01D4B98420BD0BC
:100B5000B0F1804F08D01B4B984205D01A4B9842F9
:100B600002D01A4B984204D14FF68F731A404B882B
:100B70001A43174B984207D0164B984204D04FF6B1
:100B8000FF431A40CB881A4302808B8883850B88E9
:100B900003850A4B98420BD0094B984208D00E4B64
:100BA000984205D00D4B984202D00D4B984201D18E
:100BB0000B7A03860123838270470000002C0140DA
:100BC000003401400004004000080040000C0040D8
:100BD000001000400014004000400140004401406B
:100BE0000048014070B504460D4629462046FFF7EF
:100BF00026FC012801D1002070BD0120FCE700BFC8
:100C0000FEE702E008C8121F08C1002AFAD17047A7
:100C10007047002001E001C1121F002AFBD170477C
:100C200010B56FF00400FFF703FE0A4800680A4998
:100C3000B0FBF1F0094908700846007800EB40016C
:100C4000C1EBC0104FF6FF7101EAC00004490880F3
:100C500010BD00000400002000127A0000000020F7
:100C60000200002010B54FF47A710846FFF7A6FD88
:100C70004FF42F70FFF729FB40F233410348FFF791
:100C80009DFD40F26630FFF720FB10BD50FBFFFFDB
:100C900000BF00BF00BF002400BF00BF0220FFF75D
:100CA00023FCFFF7BDFF0220FFF7D4FB0120FFF775
:100CB000D1FBFFF793FCFFF708FDFFF7E3FBFFF71E
:100CC00069FAFFF77BFAFFF78DFAFFF79FFAFFF754
:100CD000B1FAFFF7C1FAFFF7D1FAFFF7E3FAFDE344
:100CE000FFF7E6FB0128FAD14FF4FA610846FFF757
:100CF00065FD4FF4FA70FFF7E8FA31E24FF4004176
:100D0000F848FFF76FFF78BB0821F748FFF76AFF45
:100D100050BB4FF40051F548FFF764FF012824D180
:100D20008103F248FFF75EFF01281ED1C103EF489F
:100D3000FFF758FF012818D11021EB48FFF752FFA9
:100D4000012812D10102E848FFF74CFF01280CD11D
:100D50008021E448FFF746FF012806D140F6B8316C
:100D60000846FFF72BFDC8E7FFE74FF40041DD48D9
:100D7000FFF738FF78BB0821DB48FFF733FF012876
:100D80002AD14103D948FFF72DFF012824D181033F
:100D9000D648FFF727FF01281ED1C103D348FFF72C
:100DA00021FF012818D11021CF48FFF71BFF012890
:100DB00012D10102CC48FFF715FF01280CD1802188
:100DC000C848FFF70FFF012806D140F6B831481098
:100DD000FFF7F4FC91E7FFE74FF40041C148FFF74C
:100DE00001FF01282FD10821BF48FFF7FBFE50BBB0
:100DF0004FF40051BD48FFF7F5FE012823D18103D0
:100E0000BA48FFF7EFFE01281DD1C103B748FFF72D
:100E1000E9FE012817D11021B348FFF7E3FE0128AE
:100E200011D10102B048FFF7DDFE01280BD180216E
:100E3000AC48FFF7D7FE012805D140F2DC5148004D
:100E4000FFF7BCFC59E74FF40041A848FFF7CAFE82
:100E5000012830D1C103A348FFF7C4FE58BB4FF4AB
:100E60000051A248FFF7BEFE012824D181039F480C
:100E7000FFF7B8FE01281ED1C1039C48FFF7B2FE60
:100E8000012818D110219848FFF7ACFE012812D193
:100E900001029548FFF7A6FE01280CD18021914858
:100EA000FFF7A0FE012806D140F61C4140F2DC50BD
:100EB000FFF784FCFFE308218B48FFF793FE80BB1C
:100EC00010218948FFF78EFE58BB4FF40051874828
:100ED000FFF788FE012825D181038448FFF782FEB1
:100EE00001281FD1C1038148FFF77CFE012819D1D9
:100EF000C1037C48FFF776FE012813D101027A482E
:100F0000FFF770FE01280DD180217648FFF76AFEB9
:100F1000012807D140F2DC5140F61C40FFF74EFC9F
:100F2000C9E3FFE74FF400417048FFF75BFE88BB61
:100F30004FF400416B48FFF755FE01282BD14103C8
:100F40006A48FFF74FFE012825D181036748FFF764
:100F500049FE01281FD108216348FFF743FE0128FD
:100F600019D110216048FFF73DFE012813D101027D
:100F70005D48FFF737FE01280DD180215948FFF762
:100F800031FE012807D140F64E4140F2DC50FFF718
:100F900015FC90E3FFE708215348FFF723FE0128E3
:100FA00030D110215048FFF71DFE58BB4FF40051BF
:100FB0004E48FFF717FE012824D181034B48FFF765
:100FC00011FE01281ED1C1034848FFF70BFE01287E
:100FD00018D1C1034348FFF705FE012812D10102D1
:100FE0004148FFF7FFFD01280CD180213D48FFF764
:100FF000F9FD012806D140F2DC5140F64E40FFF7E2
:10100000DDFB58E34FF480413848FFF7EBFD88BB28
:101010004FF400413548FFF7E5FD58BB4FF4005150
:101020003248FFF7DFFD012825D1C1032D48FFF726
:10103000D9FD01281FD108212B48FFF7D3FD012836
:1010400019D110212848FFF7CDFD012813D1010245
:101050002548FFF7C7FD01280DD180212148FFF762
:10106000C1FD012807D14FF4486140F2DC50FFF781
:10107000A5FB20E3FFE710211B48FFF7B3FDB8BB3A
:101080004FF480711848FFF7ADFD88BB4FF4005155
:101090001648FFF7A7FD01282BD181031348FFF75E
:1010A000A1FD012825D1C1031048FFF79BFD0128B0
:1010B0001FD1C1030B48FFF795FD012819D1082165
:1010C0000948FFF78FFD012813D180210548FFF75C
:1010D00089FD01280DD140F2DC514FF44860FFF743
:1010E0006DFBE8E200080140000C014000100140E7
:1010F000FFE74FF48041FE48FFF774FD88BB4FF4D3
:101100000041FB48FFF76EFD01282BD14103F84851
:10111000FFF768FD012825D1C103F648FFF762FDFE
:1011200001281FD10821F448FFF75CFD012819D1DF
:101130001021F148FFF756FD012813D10102EE48B6
:10114000FFF750FD01280DD18021EA48FFF74AFD45
:10115000012807D140F6B24140F2DC50FFF72EFBE8
:10116000A9E2FFE71021E448FFF73CFD012830D158
:101170000102E148FFF736FD58BB4FF40051DC484F
:10118000FFF730FD012824D18103D948FFF72AFD5C
:1011900001281ED1C103D648FFF724FD012818D12C
:1011A000C103D448FFF71EFD012812D10821D248FF
:1011B000FFF718FD01280CD18021CE48FFF712FD62
:1011C000012806D140F2DC5140F6B240FFF7F6FAB2
:1011D00071E24FF40051C648FFF704FD88BB4FF49D
:1011E0008041C348FFF7FEFC58BB4FF40041C048A4
:1011F000FFF7F8FC012825D1C103BE48FFF7F2FC38
:1012000001281FD10821BC48FFF7ECFC012819D1A7
:101210001021B948FFF7E6FC012813D10102B648B6
:10122000FFF7E0FC01280DD18021B248FFF7DAFC7E
:10123000012807D140F6E44140F2DC50FFF7BEFA46
:1012400039E2FFE74FF48071AB48FFF7CBFC80BB7E
:101250008021A848FFF7C6FC58BB4FF40051A448B2
:10126000FFF7C0FC012825D18103A148FFF7BAFC94
:1012700001281FD1C1039E48FFF7B4FC012819D1F2
:10128000C1039C48FFF7AEFC012813D108219A48FE
:10129000FFF7A8FC01280DD110219748FFF7A2FC09
:1012A000012807D140F2DC5140F6E440FFF786FA0E
:1012B00001E2FFE74FF400518D48FFF793FC88BB34
:1012C0004FF480418A48FFF78DFC01282BD1C103E0
:1012D0008748FFF787FC012825D1C1038548FFF720
:1012E00081FC01281FD108218348FFF77BFC0128DE
:1012F00019D110218048FFF775FC012813D1010294
:101300007D48FFF76FFC01280DD180217948FFF758
:1013100069FC012807D140F6165140F2DC50FFF776
:101320004DFAC8E1FFE74FF480717348FFF75AFCAC
:10133000012830D180216F48FFF754FC58BB4FF48F
:1013400000516B48FFF74EFC012824D18103684807
:10135000FFF748FC01281ED1C1036548FFF742FC96
:10136000012818D1C1036348FFF73CFC012812D1C2
:1013700008216148FFF736FC01280CD110215E4896
:10138000FFF730FC012806D140F2DC5140F6165040
:10139000FFF714FA8FE14FF400515548FFF722FC94
:1013A000012825D181035248FFF71CFC01281FD1D9
:1013B000C1034F48FFF716FC012819D1C1034D485E
:1013C000FFF710FCA0B908214B48FFF70BFC78B9D8
:1013D00010214948FFF706FC50B94FF48071464888
:1013E000FFF700FC20B980214248FFF7FBFB68B300
:1013F0004FF400513E48FFF7F5FB01284AD1810325
:101400003B48FFF7EFFB012844D1C1033848FFF701
:10141000E9FB01283ED1C1033648FFF7E3FB012871
:1014200038D108213448FFF7DDFB78BB1021324862
:10143000FFF7D8FB50BB4FF480712F48FFF7D2FB6A
:1014400020BB80212B48FFF7CDFBF8B9641C00BFFF
:10145000082C03D00B2C01D00D2C02D100F03EF94A
:1014600029E10A2C02D1FFF7FDFB24E1092C08D168
:101470004FF4FA610846FFF7A1F9C820FEF725FFEF
:1014800019E1132C03DD00F03FF914E102E000F054
:1014900025F910E14FF400511548FFF7A3FB68BB95
:1014A0004FF480411248FFF79DFB38BB4FF40041D9
:1014B0000F48FFF797FB08BB4FF400410D48FFF7BB
:1014C00091FBD8B908210C48FFF78CFBB0B910216B
:1014D0000948FFF787FB012815D100E0EDE0010284
:1014E0000548FFF77FFB01280DD18021014806E068
:1014F0000010014000080140000C014003E0FFF72C
:1015000071FB01282FD04FF400516D48FFF76AFBA3
:10151000A0BB4FF480416A48FFF764FB70BB4FF4F7
:1015200000416748FFF75EFB40BB4FF40041654850
:10153000FFF758FB10BB08216348FFF753FB012856
:1015400035D110216048FFF74DFB01282FD1010252
:101550005D48FFF747FB012829D180215948FFF753
:1015600041FB012823D1641C00BF082C03D00B2CA5
:1015700001D00D2C03D100F0B1F89CE017E00A2C4B
:1015800002D1FFF76FFB96E0092C08D14FF4FA6106
:101590000846FFF713F9C820FEF797FE8BE0132CDF
:1015A00002DD00F0B1F886E0FFF75CFB83E04FF46A
:1015B00000514348FFF716FB01282ED18103404814
:1015C000FFF710FB012828D1C1033D48FFF70AFBB4
:1015D000012822D1C1033B48FFF704FB01281CD19D
:1015E00008213948FFF7FEFA012816D110213648A4
:1015F000FFF7F8FA012810D101023348FFF7F2FA99
:1016000001280AD180212F48FFF7ECFA012804D1E4
:1016100000210846FFF7D2F84DE04FF4005128486A
:10162000FFF7E0FA78BB4FF480412548FFF7DAFA7C
:1016300048BB4FF400412248FFF7D4FA18BB4FF4DF
:1016400000412048FFF7CEFAE8B908211E48FFF70D
:10165000C9FAC0B910211C48FFF7C4FA98B94FF471
:1016600080711948FFF7BEFA68B980211548FFF765
:10167000B9FA40B9641C082C03D00B2C01D00D2CF6
:1016800002D100F02BF816E00A2C02D1FFF7EAFA9B
:1016900011E0092C08D14FF4FA610846FFF78EF8E3
:1016A000C820FEF712FE06E0132C02DD00F02CF835
:1016B00001E000F029F8FFF721BBFFF711BB0000A4
:1016C0000010014000080140000C014001460029C3
:1016D00001DA484200E008467047000010B54FF4B8
:1016E0007A710846FFF76AF84FF42F70FEF7EDFDA8
:1016F000044940F23340FFF761F840F26630FEF7EC
:10170000E4FD10BD50FBFFFF10B54FF4FA61084631
:10171000FFF754F84FF4FA70FEF7D7FD00210846A2
:10172000FFF74CF84FF41670FEF7DBFD10BD00001C
:10173000501700080000002018000000020C0008EC
:10174000681700081800002000040000120C0008B0
:101750000000000000A24A04000000000000000099
:08176000010203040607080959
:0400000508000131BD
:00000001FF
