:020000040800F2
:1000000018040020490100084105000851040008B7
:100010001105000891010008FF0B00080000000016
:10002000000000000000000000000000C9060008F9
:10003000C902000800000000D9050008590800089E
:100040006301000863010008630100086301000800
:1000500063010008630100086301000863010008F0
:1000600063010008630100086301000863010008E0
:1000700063010008630100086301000863010008D0
:1000800063010008630100086301000863010008C0
:1000900063010008630100086301000863010008B0
:1000A00063010008630100086301000863010008A0
:1000B000BD08000863010008D508000863010008B6
:1000C0006301000863010008630100086301000880
:1000D0006301000863010008630100086301000870
:1000E0006301000863010008630100086301000860
:1000F0006301000863010008630100086301000850
:10010000630100086301000863010008630100083F
:10011000630100086301000863010008630100082F
:10012000630100086301000863010008630100081F
:10013000DFF810D000F01AF8004800478D0C0008D6
:10014000AFF30080180400200648804706480047A7
:10015000FEE7FEE7FEE7FEE7FEE7FEE7FEE7FEE777
:10016000FEE7FEE75D08000831010008064C074D78
:1001700006E0E06840F0010394E807009847103477
:10018000AC42F6D3FFF7D8FF2C1700084C17000835
:1001900000BFFEE708B50121102000F085FA4FF4FA
:1001A0000050ADF8000028208DF803006946024891
:1001B00000F0BAF808BD00000010014008B50121A8
:1001C000102000F071FA4FF48040ADF800002820B4
:1001D0008DF803006946024800F0A6F808BD00004B
:1001E0000010014008B50121102000F05DFA4FF425
:1001F0000040ADF8000028208DF803006946024851
:1002000000F092F808BD00000010014008B501217F
:10021000042000F049FA4FF40040ADF80000282017
:100220008DF803006946024800F07EF808BD000022
:100230000008014008B50121082000F035FA082027
:10024000ADF8000028208DF803006946014800F051
:100250006BF808BD000C014008B50121082000F032
:1002600023FA1020ADF8000028208DF8030069461D
:10027000014800F059F808BD000C014008B5012103
:10028000082000F011FA4FF48070ADF8000028202B
:100290008DF803006946024800F046F808BD0000EA
:1002A000000C014008B50121042000F0FDF9802078
:1002B000ADF8000028208DF803006946014800F0E1
:1002C00033F808BD00080140704700B5034603E05D
:1002D0004FF47A7000F011F8181EA3F10103F7D162
:1002E00000BD10B5044603E04FF47A70FFF7EDFF50
:1002F000201EA4F10104F7D110BD00EBC001C9001C
:100300004FF0E0225161002191610521116100BF90
:100310004FF0E021096901F480310029F8D004216F
:100320004FF0E022116170472DE9F04102460025AF
:100330000026002000230024002791F803C00CF0C1
:100340000F0591F803C00CF0100CBCF1000F03D0A6
:1003500091F802C04CEA050591F800C0BCF1000F0D
:1003600031D0146800202BE04FF0010C0CFA00F3A0
:10037000B1F800C00CEA03069E4220D183004FF082
:100380000F0C0CFA03F7BC4305FA03FC4CEA040417
:1003900091F803C0BCF1280F06D14FF0010C0CFA04
:1003A00000FCC2F814C00AE091F803C0BCF1480F89
:1003B00005D14FF0010C0CFA00FCC2F810C0401C33
:1003C0000828D1D31460B1F800C0BCF1FF0F34DDB0
:1003D000546800202EE000F1080C4FF0010808FAE4
:1003E0000CF3B1F800C00CEA03069E4221D1830051
:1003F0004FF00F0C0CFA03F7BC4305FA03FC4CEA70
:10040000040491F803C0BCF1280F05D100F1080CD9
:1004100008FA0CF8C2F8148091F803C0BCF1480F38
:1004200007D100F1080C4FF0010808FA0CF8C2F8E7
:100430001080401C0828CED35460BDE8F0810246ED
:10044000002093680B400BB1012000E000207047B2
:1004500000BFFEE701464906084A926942F00102E0
:10046000064B9A61064A526822F0E062044B5A60D9
:100470001A4652680A435A60704700000010024052
:100480000000014008B50121042000F00DF94820CA
:100490008DF803002020ADF8000003208DF8020045
:1004A00069460248FFF740FF08BD00000008014010
:1004B00010B5002420210B48FFF7C1FF70B91420AC
:1004C000FFF703FF00BF20210648FFF7B8FF002811
:1004D000F9D01420FFF7F9FE012400E000242046A3
:1004E00010BD0000000801400146072323EA010275
:1004F0001202054B18684FF6FF031840034B1843D0
:100500001043014B186070470CED00E00000FA0545
:1005100000BFFEE708B50121082000F0C5F84FF440
:100520007040ADF8000010208DF8030003208DF816
:10053000020069460148FFF7F7FE08BD000C0140C4
:100540007047000000B589B00121022000F09CF83E
:100550000121082000F0A8F818208DF823000120C0
:10056000ADF8200003208DF8220008A91848FFF7F5
:10057000DBFE184800F0E1F90020ADF81A00ADF8F4
:10058000160044F61F60ADF818004720ADF81400BF
:1005900000208DF81C0005A90E4800F0D1FA01A832
:1005A00000F0C3FA6020ADF804000020ADF80C00A4
:1005B0000120ADF806000020ADF80A0001A90548A9
:1005C00000F018FA0121034800F09CF909B000BDC1
:1005D000000C0140000400407047000000B589B0E5
:1005E000FFF798FF0121C80200F05EF80121042006
:1005F00000F05AF84FF41060ADF8200018208DF884
:10060000230003208DF8220008A91D48FFF78CFE67
:1006100041F61F40ADF818000020ADF81400ADF809
:100620001A00ADF8160005A9164800F089FA6020F6
:10063000ADF804000120ADF806000020ADF80A0076
:10064000ADF80C0001A90F4800F07EF901A90D4892
:1006500000F020FA01210B4800F060F90821094858
:1006600000F0BEF90821074800F052FA01210548C0
:1006700000F03CF90121034800F044F909B000BD45
:1006800000080140002C014029B1064AD26902430A
:10069000044BDA6104E0034AD2698243014BDA6118
:1006A000704700000010024029B1064A92690243D7
:1006B000044B9A6104E0034A92698243014B9A61B8
:1006C0007047000000100240704710B5FFF73AFF76
:1006D00010BD10B500F002F810BD00000CB50020F0
:1006E000019000903348006840F480303149086040
:1006F00000BF3048006800F4003000900198401CB2
:100700000190009818B90198B0F5A06FF1D129486F
:10071000006800F4003010B10120009001E00020DA
:1007200000900098012843D12348006840F0100051
:10073000214908600846006820F003000860084668
:10074000006840F0020008601A4840681949486093
:100750000846406848600846406840F48060486049
:100760000846406820F47C1048600846406840F421
:10077000E81048600846006840F08070086000BFDC
:100780000C48006800F000700028F9D00948406863
:1007900020F00300074948600846406840F0020026
:1007A000486000BF0348406800F00C000828F9D1F9
:1007B0000CBD0000001002400020024000B50346BE
:1007C0000A46002B07DD0120164908600020164963
:1007D000C1F8B00106E0002012490860012012496A
:1007E000C1F8B001002A08DD00200E49091D08608B
:1007F00001200D49C1F8BC0107E001200949091D8C
:10080000086000200849C1F8BC01184600F05CFFF0
:1008100006490880104600F057FF04490C3908804B
:1008200000BD0000B481214200802142402C0140E3
:10083000042808D14FF0E021096941F004014FF08C
:10084000E022116107E04FF0E021096921F0040185
:100850004FF0E022116170477047000010B5134857
:10086000006840F0010011490860084640681049DE
:1008700008400E494860084600680E4908400B4988
:1008800008600846006820F4802008600846406838
:1008900020F4FE0048604FF41F008860FFF719FF46
:1008A0004FF000600449086010BD000000100240D5
:1008B0000000FFF8FFFFF6FE08ED00E04FF080407B
:1008C000008A4FF08040008A20F001004FF0804104
:1008D00008827047044800880348008820F001001F
:1008E00001490880704700001008004021B10288CB
:1008F00042F08002028004E002884FF67F731A40C3
:100900000280704721B1028842F00102028004E0B7
:1009100002884FF6FE731A400280704731B1B0F87A
:10092000442042F40042A0F8442005E0B0F84420FE
:10093000C2F30E02A0F84420704701894FF6F87206
:10094000114001817047000070B50024002200238F
:10095000058C4FF6FE7635400584028C8388048B27
:100960004FF68F752C40B51E2C400D882C43751EFC
:100970002A400D892A434D882A43144DA8420BD0A2
:10098000134DA84208D0134DA84205D0124DA842DD
:1009900002D0124DA84213D14FF6F7752A404D8967
:1009A0002A434FF6FB752A408D882A434FF6FF6590
:1009B0002B404FF6FF552B408D892B43CD892B4380
:1009C00083800483CD888586028470BD002C01401D
:1009D0000034014000400140004401400048014013
:1009E0000A460021018B4FF6F7731940114301832A
:1009F0007047000070B5002400220023058C4FF6DC
:100A0000FF6635400584028C8388848B4FF68F7592
:100A10002C404FF6FC752C400D882C434FF6FF55AB
:100A20002A400D894FF6FF7606EA05252A434D88B0
:100A300006EA05252A43154DA84202D0144DA842C6
:100A40001DD14FF2FF752A404D894FF6FF7606EA19
:100A500005252A434FF6FF352A408D8806EA0525ED
:100A60002A434EF6FF752B404DF6FF752B408D89BE
:100A700006EA05152B43CD8906EA05152B4383802D
:100A80008483CD888587028470BD0000002C0140DE
:100A90000034014070B5002200230024058C4EF67E
:100AA000FF7635400584038C8488828B48F6FF7579
:100AB0002A404FF6FF452A400D884FF6FF7606EA9A
:100AC00005252A434DF6FF752B400D8906EA0535AD
:100AD0002B434D8806EA05352B430B4DA84202D027
:100AE0000A4DA84208D14BF6FF752C408D894FF670
:100AF000FF7606EA85152C4384808283CD88A0F892
:100B00004050038470BD0000002C014000340140BF
:100B10000A460021818B4FF2FF7319404FF6FF7395
:100B200003EA022319438183704700210180418039
:100B30008180C180018141818181C1817047000034
:100B4000002202881D4B98420ED01D4B98420BD0BC
:100B5000B0F1804F08D01B4B984205D01A4B9842F9
:100B600002D01A4B984204D14FF68F731A404B882B
:100B70001A43174B984207D0164B984204D04FF6B1
:100B8000FF431A40CB881A4302808B8883850B88E9
:100B900003850A4B98420BD0094B984208D00E4B64
:100BA000984205D00D4B984202D00D4B984201D18E
:100BB0000B7A03860123838270470000002C0140DA
:100BC000003401400004004000080040000C0040D8
:100BD000001000400014004000400140004401406B
:100BE0000048014070B504460D4629462046FFF7EF
:100BF00026FC012801D1002070BD0120FCE700BFC8
:100C0000FEE702E008C8121F08C1002AFAD17047A7
:100C10007047002001E001C1121F002AFBD170477C
:100C200010B56FF00400FFF703FE0A4800680A4998
:100C3000B0FBF1F0094908700846007800EB40016C
:100C4000C1EBC0104FF6FF7101EAC00004490880F3
:100C500010BD00000400002000127A0000000020F7
:100C60000200002010B54FF47A710846FFF7A6FD88
:100C70004FF42F70FFF729FB4FF4FA614842FFF75A
:100C80009DFD4FF4E170FFF720FB10BD00BF00BFDA
:100C900000BF002400BF00BF0220FFF725FCFFF7C4
:100CA000BFFF0220FFF7D6FB0120FFF7D3FBFFF7C2
:100CB00095FCFFF70AFDFFF7E5FBFFF76BFAFFF77F
:100CC0007DFAFFF78FFAFFF7A1FAFFF7B3FAFFF704
:100CD000C3FAFFF7D3FAFFF7E5FAFDE3FFF7E8FB06
:100CE0000128FAD140F6B8310846FFF767FD4FF406
:100CF000FA70FFF7EAFA31E24FF40041F848FFF7E3
:100D000071FF78BB0821F748FFF76CFF50BB4FF429
:100D10000051F548FFF766FF012824D18103F2480E
:100D2000FFF760FF01281ED1C103EF48FFF75AFF0C
:100D3000012818D11021EB48FFF754FF012812D1E8
:100D40000102E848FFF74EFF01280CD18021E4485A
:100D5000FFF748FF012806D140F6B8310846FFF7F3
:100D60002DFDC8E7FFE74FF40041DD48FFF73AFFEC
:100D700078BB0821DB48FFF735FF01282AD1410362
:100D8000D948FFF72FFF012824D18103D648FFF768
:100D900029FF01281ED1C103D348FFF723FF0128F3
:100DA00018D11021CF48FFF71DFF012812D10102F1
:100DB000CC48FFF717FF01280CD18021C848FFF766
:100DC00011FF012806D140F6B8314810FFF7F6FCB4
:100DD00091E7FFE74FF40041C148FFF703FF012807
:100DE0002FD10821BF48FFF7FDFE50BB4FF4005143
:100DF000BD48FFF7F7FE012823D18103BA48FFF76A
:100E0000F1FE01281DD1C103B748FFF7EBFE012811
:100E100017D11021B348FFF7E5FE012811D10102D7
:100E2000B048FFF7DFFE01280BD18021AC48FFF767
:100E3000D9FE012805D140F2DC514800FFF7BEFC85
:100E400059E74FF40041A848FFF7CCFE012830D104
:100E5000C103A348FFF7C6FE58BB4FF40051A24898
:100E6000FFF7C0FE012824D181039F48FFF7BAFE97
:100E700001281ED1C1039C48FFF7B4FE012818D1F8
:100E800010219848FFF7AEFE012812D101029548C3
:100E9000FFF7A8FE01280CD180219148FFF7A2FEA0
:100EA000012806D140F61C4140F2DC50FFF786FCD9
:100EB000FFE308218B48FFF795FE80BB102189488E
:100EC000FFF790FE58BB4FF400518748FFF78AFEAA
:100ED000012825D181038448FFF784FE01281FD112
:100EE000C1038148FFF77EFE012819D1C1037C4868
:100EF000FFF778FE012813D101027A48FFF772FE4E
:100F000001280DD180217648FFF76CFE012807D11A
:100F100040F2DC5140F61C40FFF750FCC9E3FFE70C
:100F20004FF400417048FFF75DFE88BB4FF400416D
:100F30006B48FFF757FE01282BD141036A48FFF7A2
:100F400051FE012825D181036748FFF74BFE012898
:100F50001FD108216348FFF745FE012819D1102150
:100F60006048FFF73FFE012813D101025D48FFF7FB
:100F700039FE01280DD180215948FFF733FE0128A1
:100F800007D140F64E4140F2DC50FFF717FC90E3EA
:100F9000FFE708215348FFF725FE012830D1102133
:100FA0005048FFF71FFE58BB4FF400514E48FFF763
:100FB00019FE012824D181034B48FFF713FE0128B5
:100FC0001ED1C1034848FFF70DFE012818D1C10307
:100FD0004348FFF707FE012812D101024148FFF7FD
:100FE00001FE01280CD180213D48FFF7FBFD0128BF
:100FF00006D140F2DC5140F64E40FFF7DFFB58E3EC
:101000004FF480413848FFF7EDFD88BB4FF40041B5
:101010003548FFF7E7FD58BB4FF400513248FFF762
:10102000E1FD012825D1C1032D48FFF7DBFD012893
:101030001FD108212B48FFF7D5FD012819D1102118
:101040002848FFF7CFFD012813D101022548FFF7FB
:10105000C9FD01280DD180212148FFF7C3FD0128DA
:1010600007D14FF4486140F2DC50FFF7A7FB20E3C3
:10107000FFE710211B48FFF7B5FDB8BB4FF48071A7
:101080001848FFF7AFFD88BB4FF400511648FFF733
:10109000A9FD01282BD181031348FFF7A3FD0128E7
:1010A00025D1C1031048FFF79DFD01281FD1C103C1
:1010B0000B48FFF797FD012819D108210948FFF7D0
:1010C00091FD012813D180210548FFF78BFD0128F0
:1010D0000DD140F2DC514FF44860FFF76FFBE8E2BE
:1010E00000080140000C014000100140FFE74FF4F0
:1010F0008041FE48FFF776FD88BB4FF40041FB4876
:10110000FFF770FD01282BD14103F848FFF76AFD76
:10111000012825D1C103F648FFF764FD01281FD13E
:101120000821F448FFF75EFD012819D11021F1488C
:10113000FFF758FD012813D10102EE48FFF752FDD9
:1011400001280DD18021EA48FFF74CFD012807D185
:1011500040F6B24140F2DC50FFF730FBA9E2FFE776
:101160001021E448FFF73EFD012830D10102E1489B
:10117000FFF738FD58BB4FF40051DC48FFF732FD54
:10118000012824D18103D948FFF72CFD01281ED165
:10119000C103D648FFF726FD012818D1C103D44862
:1011A000FFF720FD012812D10821D248FFF71AFDD0
:1011B00001280CD18021CE48FFF714FD012806D16B
:1011C00040F2DC5140F6B240FFF7F8FA71E24FF41A
:1011D0000051C648FFF706FD88BB4FF48041C34865
:1011E000FFF700FD58BB4FF40041C048FFF7FAFC81
:1011F000012825D1C103BE48FFF7F4FC01281FD107
:101200000821BC48FFF7EEFC012819D11021B9488C
:10121000FFF7E8FC012813D10102B648FFF7E2FC12
:1012200001280DD18021B248FFF7DCFC012807D14D
:1012300040F6E44140F2DC50FFF7C0FA39E2FFE744
:101240004FF48071AB48FFF7CDFC80BB8021A848EC
:10125000FFF7C8FC58BB4FF40051A448FFF7C2FC8D
:10126000012825D18103A148FFF7BCFC01281FD12B
:10127000C1039E48FFF7B6FC012819D1C1039C4861
:10128000FFF7B0FC012813D108219A48FFF7AAFC08
:1012900001280DD110219748FFF7A4FC012807D1A0
:1012A00040F2DC5140F6E440FFF788FA01E2FFE744
:1012B0004FF400518D48FFF795FC88BB4FF48041F7
:1012C0008A48FFF78FFC01282BD1C1038748FFF71D
:1012D00089FC012825D1C1038548FFF783FC01283B
:1012E0001FD108218348FFF77DFC012819D1102167
:1012F0008048FFF777FC012813D101027D48FFF7F2
:1013000071FC01280DD180217948FFF76BFC012881
:1013100007D140F6165140F2DC50FFF74FFAC8E112
:10132000FFE74FF480717348FFF75CFC012830D170
:1013300080216F48FFF756FC58BB4FF400516B48B3
:10134000FFF750FC012824D181036848FFF74AFCCD
:1013500001281ED1C1036548FFF744FC012818D1BC
:10136000C1036348FFF73EFC012812D10821614800
:10137000FFF738FC01280CD110215E48FFF732FC42
:10138000012806D140F2DC5140F61650FFF716FA5C
:101390008FE14FF400515548FFF724FC012825D177
:1013A00081035248FFF71EFC01281FD1C1034F489B
:1013B000FFF718FC012819D1C1034D48FFF712FCB3
:1013C000A0B908214B48FFF70DFC78B91021494816
:1013D000FFF708FC50B94FF480714648FFF702FC54
:1013E00020B980214248FFF7FDFB68B34FF400515C
:1013F0003E48FFF7F7FB01284AD181033B48FFF73E
:10140000F1FB012844D1C1033848FFF7EBFB012869
:101410003ED1C1033648FFF7E5FB012838D108214A
:101420003448FFF7DFFB78BB10213248FFF7DAFBC7
:1014300050BB4FF480712F48FFF7D4FB20BB8021B5
:101440002B48FFF7CFFBF8B9641C00BF082C03D072
:101450000B2C01D00D2C02D100F03EF929E10A2C11
:1014600002D1FFF7FFFB24E1092C08D14FF4FA6108
:101470000846FFF7A3F9C820FEF727FF19E1132C50
:1014800003DD00F03FF914E102E000F025F910E17E
:101490004FF400511548FFF7A5FB68BB4FF480419E
:1014A0001248FFF79FFB38BB4FF400410F48FFF78E
:1014B00099FB08BB4FF400410D48FFF793FBD8B9E7
:1014C00008210C48FFF78EFBB0B910210948FFF73F
:1014D00089FB012815D100E0EDE001020548FFF786
:1014E00081FB01280DD18021014806E00010014058
:1014F00000080140000C014003E0FFF773FB0128E6
:101500002FD04FF400516D48FFF76CFBA0BB4FF498
:1015100080416A48FFF766FB70BB4FF400416748A3
:10152000FFF760FB40BB4FF400416548FFF75AFBF3
:1015300010BB08216348FFF755FB012835D1102166
:101540006048FFF74FFB01282FD101025D48FFF7EC
:1015500049FB012829D180215948FFF743FB012885
:1015600023D1641C00BF082C03D00B2C01D00D2C00
:1015700003D100F0B1F89CE017E00A2C02D1FFF78C
:1015800071FB96E0092C08D14FF4FA610846FFF789
:1015900015F9C820FEF799FE8BE0132C02DD00F050
:1015A000B1F886E0FFF75EFB83E04FF4005143485B
:1015B000FFF718FB01282ED181034048FFF712FBEB
:1015C000012828D1C1033D48FFF70CFB012822D197
:1015D000C1033B48FFF706FB01281CD1082139480D
:1015E000FFF700FB012816D110213648FFF7FAFA61
:1015F000012810D101023348FFF7F4FA01280AD17B
:1016000080212F48FFF7EEFA012804D10021084677
:10161000FFF7D4F84DE04FF400512848FFF7E2FA05
:1016200078BB4FF480412548FFF7DCFA48BB4FF404
:1016300000412248FFF7D6FA18BB4FF4004120487A
:10164000FFF7D0FAE8B908211E48FFF7CBFAC0B976
:1016500010211C48FFF7C6FA98B94FF48071194859
:10166000FFF7C0FA68B980211548FFF7BBFA40B907
:10167000641C082C03D00B2C01D00D2C02D100F0DF
:101680002BF816E00A2C02D1FFF7ECFA11E0092C36
:1016900008D14FF4FA610846FFF790F8C820FEF72A
:1016A00014FE06E0132C02DD00F02CF801E000F03F
:1016B00029F8FFF721BBFFF711BB00000010014024
:1016C00000080140000C01400146002901DA4842AF
:1016D00000E008467047000010B54FF47A710846E4
:1016E000FFF76CF84FF42F70FEF7EFFD0449484206
:1016F000FFF764F84FF4E170FEF7E7FD10BD00005E
:1017000030F8FFFF10B54FF4FA610846FFF756F8BE
:101710004FF4FA70FEF7D9FD00210846FFF74EF8A6
:101720004FF41670FEF7DDFD10BD00004C170008E9
:101730000000002018000000020C000864170008D8
:101740001800002000040000120C00080000000037
:1017500000A24A040000000000000000010203048F
:041760000607080967
:0400000508000131BD
:00000001FF
